:100000000C9463000C948B000C948B000C948B006C
:100010000C948B000C948B000C948B000C94B50406
:100020000C948B000C948B000C948B000C948B0024
:100030000C948B000C948B000C948B000C948B0014
:100040000C9437050C948B000C948B000C948B0053
:100050000C948B000C948B000C948B000C948B00F4
:100060000C948B000C948B000000000024002700EF
:100070002A000000000023002600290000000008DC
:10008000000201000003040700000000000000005F
:10009000010204081020408001020408102001021F
:1000A0000408102000000000250028002B00040494
:1000B0000404040404040202020202020303030310
:1000C00003030200F30611241FBECFEFD8E0DEBF0A
:1000D000CDBF11E0A0E0B1E0E4E8F1E102C005909D
:1000E0000D92A435B107D9F721E0A4E5B1E001C034
:1000F0001D92A838B207E1F710E0C3E6D0E004C0D3
:100100002197FE010E94BA08C236D107C9F70E94A2
:1001100081050C94C0080C940000AF92BF92CF925E
:10012000DF92EF92FF920F931F93CF93DF936C01B7
:100130007B018B01040F151FEB015E01AE18BF0898
:10014000C017D10759F06991D601ED91FC9101904A
:10015000F081E02DC6010995892B79F7C501DF9162
:10016000CF911F910F91FF90EF90DF90CF90BF90B4
:10017000AF900895833081F028F4813099F0823077
:10018000A9F008958730A9F08830C9F08430B1F41F
:10019000809180008F7D03C0809180008F77809355
:1001A0008000089584B58F7784BD089584B58F7DD0
:1001B000FBCF8091B0008F778093B000089580913D
:1001C000B0008F7DF9CF1F93CF93DF93282F30E0BE
:1001D000F901E458FF4F8491F901E057FF4FD491A2
:1001E000F901E255FF4FC491CC23A9F0162F8111DC
:1001F0000E94BA00EC2FF0E0EE0FFF1FEC55FF4F0E
:10020000A591B4918FB7F894EC91111108C0D095D5
:10021000DE23DC938FBFDF91CF911F910895DE2BFA
:10022000F8CFCF93DF9390E0FC01E057FF4F24918C
:1002300082559F4FFC0184918823D1F090E0880F74
:10024000991FFC01E859FF4FA591B491FC01EC55B1
:10025000FF4FC591D49161110EC09FB7F8948C9156
:10026000E22FE0958E238C932881E223E8839FBFC1
:10027000DF91CF9108958FB7F894EC91E22BEC9336
:100280008FBFF6CFCF92DF92EF92FF920F931F9323
:10029000CF938B0190910001891759F09F3F09F48A
:1002A0004AC0CF911F910F91FF90EF90DF90CF90B8
:1002B0000895E2ECF0E0C491C7FDF3CF61E00E9445
:1002C0001101C1114CC0980150E040E062E17AE7B1
:1002D00080E090E00E94780869017A0181E0C81A04
:1002E000D108E108F10885B5887F846085BD980153
:1002F000220F331FA4EFB1E00E94970828EE33E0ED
:1003000040E050E00E945608C13009F4BEC0C2303F
:1003100009F4CDC0C111C5CFC7BC20936C01309387
:100320006D0140936E0150936F0180916E00826069
:1003300080936E00B6CF80930001E2ECF0E0C491B0
:10034000CF3F09F4AECFC13009F440C010F1C23044
:1003500009F45EC0C7FDA5CF61E00E9411019801BC
:1003600050E040E0C23009F079C064E274EF80E010
:1003700090E00E94780869017A0181E0C81AD108EA
:10038000E108F1088091B100887F85608093B10019
:10039000AECF14BC15BC94B5926094BD95B5916078
:1003A00095BD282F30E0F901E255FF4FE491F0E0D0
:1003B000EE0FFF1FEC55FF4F45915491F901E057A7
:1003C000FF4FE491E0936301C0E078CF109280008A
:1003D000109281009091810098609093810090919B
:1003E0008100916090938100282F30E0F901E2555F
:1003F000FF4FE491F0E0EE0FFF1FEC55FF4F4591EA
:100400005491F901E057FF4FE491E093620156CF18
:100410001092B0001092B1009091B0009260909351
:10042000B0009091B10091609093B100282F30E01E
:10043000F901E255FF4FE491F0E0EE0FFF1FEC559C
:10044000FF4F459154915093610140936001F90130
:10045000E057FF4FE491E0935F0130CF60E072E13D
:100460008AE790E00E94780869017A0181E0C81A61
:10047000D108E108F108C13009F039CF809181003D
:10048000887F81608093810032CFD0928900C092B2
:100490008800209368013093690140936A0150936A
:1004A0006B0180916F00826080936F00FACEC092E2
:1004B000B30020936401309365014093660150932B
:1004C000670180917000826080937000EACE8E3068
:1004D00008F08E508770806480937C0080917A0051
:1004E000806480937A0080917A0086FDFCCF8091B1
:1004F00078009091790008953FB7F8948091590160
:1005000090915A01A0915B01B0915C0126B5A89B26
:1005100005C02F3F19F00196A11DB11D3FBFBA2F95
:10052000A92F982F8827BC01CD01620F711D811D55
:10053000911D42E0660F771F881F991F4A95D1F7DA
:1005400008958F929F92AF92BF92CF92DF92EF92D7
:10055000FF924B015C010E947C026B017C010E94B6
:100560007C026C197D098E099F09683E73408105E4
:100570009105A8F321E0821A9108A108B10888EE3C
:10058000C80E83E0D81EE11CF11C81149104A10463
:10059000B10429F7FF90EF90DF90CF90BF90AF901C
:1005A0009F908F900895089590E080E008958F9235
:1005B0009F92AF92BF920F931F93CF93DF93CDB7CC
:1005C000DEB7A1970FB6F894DEBF0FBECDBF19A25C
:1005D000423008F44AE08E010F5D1F4F842E912CAB
:1005E000B12CA12CA50194010E945608E62FB90157
:1005F000CA01EA3044F5E05DD801EE938D01232B6A
:10060000242B252B79F790E080E0109769F0FD010D
:1006100001900020E9F73197AF014A1B5B0BBD0148
:1006200080E791E00E948D00A1960FB6F894DEBF9E
:100630000FBECDBFDF91CF911F910F91BF90AF90B3
:100640009F908F900895E95CD7CFFC010190002026
:10065000E9F73197AF01481B590BBC0180E791E0E6
:100660000C948D00CF93DF93EC0160E08E810E94AB
:10067000E30061E08E810E94E30060E08E810E94D1
:10068000E3008BE891E00197F1F7DF91CF910895B6
:10069000CF92DF92EF92FF920F931F93CF93DF934E
:1006A0006C017C0187E0E80EF11CD0E0C0E0062F71
:1006B00010E0B8010C2E02C0759567950A94E2F718
:1006C0006170F70181917F010E94E3002196C4309F
:1006D000D10579F7C601DF91CF911F910F91FF905E
:1006E000EF90DF90CF900C943203CF92DF92EF9295
:1006F000FF920F931F93CF93DF93EC01F62E642F9D
:100700008C810E94E3008D818F3F19F060E00E9490
:10071000E3000F2D10E08F8584FF25C06E0187E078
:10072000C80ED11CF12CE12CB8010E2C02C075951D
:1007300067950A94E2F76170F60181916F010E945A
:10074000E300FFEFEF1AFF0A88E0E816F10461F713
:10075000CE01DF91CF911F910F91FF90EF90DF902D
:10076000CF900C943203B80184E0759567958A9513
:10077000E1F7CE010E9448036F2DCE01DF91CF91AA
:100780001F910F91FF90EF90DF90CF900C94480352
:1007900040E0682F80E791E00C94750381E00E94AF
:1007A000C8038BE39FE10197F1F70895CF93DF939F
:1007B000823029F490917F01986090937F0180931B
:1007C00083011092840180E48093850180E180930D
:1007D000860180E58093870161E0809174010E9429
:1007E0001101809175018F3F19F061E00E941101A4
:1007F00061E0809176010E941101C0E7D1E09E0185
:100800002057314080917F0184FD0BC084E090E04F
:1008100021962817390744F461E08E810E94110166
:10082000EECF88E090E0F4CF8BE39DE00197F1F705
:1008300060E0809174010E94E30060E080917601A5
:100840000E94E300809175018F3F19F060E00E94E3
:10085000E30080917F0184FD34C063E080E791E094
:100860000E944803CBE4D6E4CE010197F1F763E0A0
:1008700080E791E00E9448032197F1F763E080E769
:1008800091E00E94480383E592E00197F1F762E06E
:1008900080E791E00E94480380917F0180620E947E
:1008A000C80384E0809380018CE00E94C8030E940A
:1008B000CE0382E08093810186E0DF91CF910C949A
:1008C000C80380620E94C8038BE496E40197F1F7A5
:1008D00080917F0180620E94C80383E592E00197C6
:1008E000F1F780917F0180620E94C803D5CF90917B
:1008F0008301691710F06FEF690FE62FF0E0E05900
:10090000FE4F9489890F80680C94C80341E00E94CF
:10091000750381E090E00895CF92DF92EF92FF920D
:100920006C01990FEE08FF08F7FE16C041E06DE27A
:1009300080E791E00E94750366277727CB016C1949
:100940007D098E099F094AE00E94D7020196FF9017
:10095000EF90DF90CF9008954AE0C701B601FF9075
:10096000EF90DF90CF900C94D7021F920F920FB6AA
:100970000F9211242F933F934F935F936F937F9325
:100980008F939F93AF93BF93EF93FF9380916401F5
:1009900090916501A0916601B0916701892B8A2B26
:1009A0008B2BD1F190915F01E0916001F091610199
:1009B0008081892780838091640190916501A09155
:1009C0006601B0916701181619061A061B069CF4F9
:1009D0008091640190916501A0916601B0916701D9
:1009E0000197A109B1098093640190936501A093D7
:1009F0006601B0936701FF91EF91BF91AF919F9115
:100A00008F917F916F915F914F913F912F910F90B7
:100A10000FBE0F901F90189580910001E2ECF0E05E
:100A2000E4919FEF90930001E13051F030F0E2301B
:100A300069F060E00E94E300DECF10926E00F9CF13
:100A400090916F009D7F90936F00F3CF9091700015
:100A50009D7F9093700091E09093B0009091B100D1
:100A6000987F94609093B1001092B300E2CF1F92F0
:100A70000F920FB60F9211242F933F938F939F9352
:100A8000AF93BF938091550190915601A09157016A
:100A9000B09158013091540123E0230F2D3758F5C0
:100AA0000196A11DB11D209354018093550190938F
:100AB0005601A0935701B09358018091590190912C
:100AC0005A01A0915B01B0915C010196A11DB11D7D
:100AD0008093590190935A01A0935B01B0935C01FC
:100AE000BF91AF919F918F913F912F910F900FBE2A
:100AF0000F901F90189526E8230F0296A11DB11D97
:100B0000D2CF789484B5826084BD84B5816084BD81
:100B100085B5826085BD85B5816085BD80916E009B
:100B2000816080936E0010928100809181008260CC
:100B30008093810080918100816080938100809109
:100B400080008160809380008091B10084608093F8
:100B5000B1008091B00081608093B00080917A00F4
:100B6000846080937A0080917A00826080937A001A
:100B700080917A00816080937A0080917A00806809
:100B800080937A001092C10082E00E94D6030E94F6
:100B9000CE0361E08DE00E94110160E087E00E94D9
:100BA000110161E089E00E94110181E10E94670268
:100BB000BC01990F880B990B0E94490720E030E097
:100BC00040E85AE30E94AD0720E030E44CE955E4E8
:100BD0000E94AD070E941107CB016AE070E00E94FD
:100BE000420870935E0160935D0160E080E00E94C6
:100BF00077048DE091E00E94250361E080E00E948F
:100C0000770488E191E00E94250368EE73E080E0BC
:100C100090E00E94A10293E8E92E90E0F92E27E9E6
:100C2000C22E20E0D22E35EBA32E30E0B32E00E012
:100C300010E00E94CE038EE00E946702EC0160E0AB
:100C400080E00E94770483E291E00E942503CE01B8
:100C50000E948C0460E085E00E94770480915D0131
:100C600090915E010E948C0460E087E00E9477040E
:100C70008AE291E00E942503CD3B22E0D2070CF4EA
:100C800033C060E08BE00E9477048DE291E00E9427
:100C9000250361E08BE00E94770481E391E00E94EC
:100CA0002503F7018491F6019490F5018490882042
:100CB00009F44AC081110E94BA00E82DF0E0EE0F5D
:100CC000FF1FEE58FF4FA591B4918C919822E1F14E
:100CD00061E08DE00E94E30061E080E00E94770423
:100CE00086E391E00E942503CE018C529140813928
:100CF000914008F06DC060E08BE00E94770487E4CB
:100D000091E00E94250361E08BE00E94770481E37B
:100D100091E00E94250360E08DE00E94E30061E025
:100D200080E00E9477048EE391E00E9425036AE050
:100D300070E080E090E00E94A1020115110509F425
:100D400078CF0E94000075CF60E08DE00E94E30044
:100D500061E080E00E9477048EE391E00E94250329
:100D600066E071E089E00E94420164EF71E080E09A
:100D700090E00E94A10266E271E089E00E944201D7
:100D800064EF71E080E090E00E94A1026AE471E00B
:100D900089E00E94420164EF71E080E090E00E94EF
:100DA000A1026DE571E089E00E94420164EF71E00B
:100DB00080E090E00E94A10268E871E089E00E9472
:100DC000420164EF71E080E090E00E94A1028CCFCC
:100DD000CC32D1400CF0ABCF60E08BE00E947704C6
:100DE0008DE491E08ECFE0E7F1E01382128285E09E
:100DF00091E0918380838CE084838FEF85838BE007
:100E0000868385E0878384E0808783E0818782E032
:100E100082871386148615861686178681E00C94C1
:100E2000D6030E9418076894B1110C94A70708957F
:100E30000E948C0788F09F5798F0B92F9927B751D7
:100E4000B0F0E1F0660F771F881F991F1AF0BA956E
:100E5000C9F714C0B13091F00E94A607B1E008951F
:100E60000C94A607672F782F8827B85F39F0B93F11
:100E7000CCF3869577956795B395D9F73EF4909521
:100E80008095709561957F4F8F4F9F4F0895E8949F
:100E900009C097FB3EF490958095709561957F4FC2
:100EA0008F4F9F4F9923A9F0F92F96E9BB27939570
:100EB000F695879577956795B795F111F8CFFAF480
:100EC000BB0F11F460FF1BC06F5F7F4F8F4F9F4FB1
:100ED00016C0882311F096E911C0772321F09EE80F
:100EE000872F762F05C0662371F096E8862F70E075
:100EF00060E02AF09A95660F771F881FDAF7880F4F
:100F00009695879597F9089557FD9058440F551F6A
:100F100059F05F3F71F04795880F97FB991F61F07B
:100F20009F3F79F087950895121613061406551FF2
:100F3000F2CF4695F1DF08C0161617061806991F5E
:100F4000F1CF86957105610508940895E894BB2753
:100F500066277727CB0197F908950E94C0070C9464
:100F600031080E94230838F00E942A0820F09523B7
:100F700011F00C941A080C94200811240C94A70763
:100F80000E94840770F3959FC1F3950F50E0551FA1
:100F9000629FF001729FBB27F00DB11D639FAA27CE
:100FA000F00DB11DAA1F649F6627B00DA11D661F1D
:100FB000829F2227B00DA11D621F739FB00DA11D3E
:100FC000621F839FA00D611D221F749F3327A00DF8
:100FD000611D231F849F600D211D822F762F6A2F94
:100FE00011249F5750409AF0F1F088234AF0EE0FF9
:100FF000FF1FBB1F661F771F881F91505040A9F726
:101000009E3F510580F00C941A080C94A7075F3F8F
:10101000E4F3983ED4F3869577956795B795F79561
:10102000E7959F5FC1F7FE2B880F911D96958795D9
:1010300097F9089597F99F6780E870E060E0089558
:101040009FEF80EC089500240A94161617061806E0
:101050000906089500240A941216130614060506BC
:101060000895092E0394000C11F4882352F0BB0F4D
:1010700040F4BF2B11F460FF04C06F5F7F4F8F4FB0
:101080009F4F089597FB072E16F4009407D077FD25
:1010900009D00E94A60807FC05D03EF490958195E2
:1010A0009F4F0895709561957F4F0895A1E21A2E84
:1010B000AA1BBB1BFD010DC0AA1FBB1FEE1FFF1FFC
:1010C000A217B307E407F50720F0A21BB30BE40B4C
:1010D000F50B661F771F881F991F1A9469F7609593
:1010E0007095809590959B01AC01BD01CF0108954D
:1010F000052E97FB1EF400940E948F0857FD07D021
:101100000E94560807FC03D04EF40C948F085095AB
:101110004095309521953F4F4F4F5F4F08959095E3
:101120008095709561957F4F8F4F9F4F0895A29F37
:10113000B001B39FC001A39F700D811D1124911DAB
:10114000B29F700D811D1124911D0895AA1BBB1B18
:1011500051E107C0AA1FBB1FA617B70710F0A61BB7
:10116000B70B881F991F5A95A9F780959095BC01D8
:10117000CD010895EE0FFF1F0590F491E02D099425
:04118000F894FFCF11
:10118400FF0000000086048D00D402D30250726F69
:101194006A65637420427900534B2047524F55507F
:1011A40053200054454D503A20002A4300445259DC
:1011B40000534F494C0050554D503A4F4E00505536
:1011C4004D503A4F4646004D4F49535400534F47F4
:0411D4004759000077
:00000001FF
